:020000020000FC
:1000000000C008E00EBF0FEF0DBF0CE204B904E022
:1000100005B900E007B900E308B935D02227332736
:100020004427882720D009D0022F000F030F041780
:1000300011F0402F18D04ED0F6CF06B104FD08C005
:1000400080FD07C081602395233019F4222701C069
:100050008E7F05FD06C081FD05C0826011E031275D
:1000600001C08D7F0895E4EFF0E0042F000F000F32
:10007000000FE00F1127F11F51E065911AD0539541
:100080005930D9F708955FE060E013D059E060E09F
:1000900010D05BE067E00DD05AE065E00AD05CE08C
:1000A00061E007D051E060E004D053955930E1F7AA
:1000B00008952A98152F04D0162F02D02A9A089551
:1000C00078E02B9817FD2B9A2D9A2D98110F7A9581
:1000D000C1F708959F93AF93BF93B5E090E5A8EC67
:1000E000AA95F1F79A95D9F7BA95C1F7BF91AF9153
:1000F0009F9108953C42A581A599423C3C42A5812F
:10010000A199423C0066FFFF7E3C1800000E62662B
:1001100002626E0018995AFFFF5A991800AEA94959
:0401200049A9AE003B
:00000001FF
