:020000020000FC
:0200000033C00B
:02002C008AC088
:1000680008E00EBF0FEF0DBF11240CEF0AB903E033
:1000780004B900270BB905B9112722272ED0F1E0C2
:10008800EAE93FD044D078940091C00007FFFCCF44
:100098000091C600013369F0023399F0023539F056
:1000A800023729F00D34A9F00D3699F0EDCFF89408
:1000B800D7CFF89416E022277894F2E0ECE621D026
:1000C800E3CFF8941CE022277894F2E0E8E819D00E
:1000D800DBCFF1E0EAE915D0D7CF07E60093C400FB
:1000E80000E00093C50008E10093C10006E000931A
:1000F800C20008954091C00045FFFCCF0093C600A0
:1001080008950591002311F0F5DFFBCF089500272E
:100118000093800000938100009385000093840081
:1001280000E0009389000DE40093880002E000934A
:100138006F000AE00093810008950F930FB70F93A3
:100148003F934F93EF93FF93163019F01C3039F01B
:100158000DC0F2E0E6EAE20FF11D349105C0F3E0CC
:10016800E6EAE20FF11D349109D02395FF91EF9152
:100178004F913F910F910FBF0F911895032F0C7F4F
:100188004BB14370042B0BB9032F0370042B05B933
:1001980008950D0A3D3D3D3D3D3D3D3D3D3D3D3DC7
:1001A8003D3D3D3D3D3D3D3D3D3D3D3D3D3D3D3D77
:1001B8000D0A47454E455241444F52204445204F71
:1001C8004E444153202D2044414320522D32522089
:1001D8000D0A3D3D3D3D3D3D3D3D3D3D3D3D3D3DAA
:1001E8003D3D3D3D3D3D3D3D3D3D3D3D3D3D0D0A9A
:1001F8002031203D2053656E616C203620284F6EDB
:10020800646129200D0A2032203D2053656E616CFF
:10021800203132202852616D706129200D0A204D4D
:100228002F6D203D204D6F7374726172206D656E65
:1002380075200D0A20522F72203D20526573657477
:100248002073697374656D610D0A2053656C65636D
:1002580063696F6E6520756E61206F7063696F6E7C
:100268003A0D0A000D0A206F2053656E616C203626
:100278002073656C656363696F6E6164610D0A0064
:100288000D0A206F2053656E616C20313220736532
:100298006C656363696F6E616461200D0A00494A89
:1002A8004B4B4A49494949484745444343434444D9
:1002B80043413E3D3B39383737363636373737379F
:1002C8003737363533323131343D4D6584A9CFEE79
:1002D800FFFEEAC69A6D442511050001060D141C9F
:1002E800242D34393D40414243444445464747471D
:1002F80047474747474748484849494A4B4B4C4D69
:100308004E4F505152535456585B5D606264666854
:100318006B6D707376797B7D7E7F7F7F7F7F7E7D3F
:100328007C797774716D6966625F5C595754514F77
:100338004D4C4B4A4948464544434343444444454D
:1003480045454545454546474849494A4A4B4B4B2B
:100358004B4B4B4A4A494949494848484747474708
:10036800474747464646454545454546464645442A
:100378004443434343424242414141414141414157
:1003880040403F3F40404141414141414140404060
:1003980040404040404141414243444547480000B5
:1003A8000102030405060708090A0B0C0D0E0F10BD
:1003B8001112131415161718191A1B1C1D1E1F20AD
:1003C8002122232425262728292A2B2C2D2E2F309D
:1003D8003132333435363738393A3B3C3D3E3F408D
:1003E8004142434445464748494A4B4C4D4E4F507D
:1003F8005152535455565758595A5B5C5D5E5F606D
:100408006162636465666768696A6B6C6D6E6F705C
:100418007172737475767778797A7B7C7D7E7F804C
:100428008182838485868788898A8B8C8D8E8F903C
:100438009192939495969798999A9B9C9D9E9FA02C
:10044800A1A2A3A4A5A6A7A8A9AAABACADAEAFB01C
:10045800B1B2B3B4B5B6B7B8B9BABBBCBDBEBFC00C
:10046800C1C2C3C4C5C6C7C8C9CACBCCCDCECFD0FC
:10047800D1D2D3D4D5D6D7D8D9DADBDCDDDEDFE0EC
:10048800E1E2E3E4E5E6E7E8E9EAEBECEDEEEFF0DC
:0E049800F1F2F3F4F5F6F7F8F9FAFBFCFDFECD
:00000001FF
