:020000020000FC
:1000000000C00FEF0DBF08E00EBF0FE104B90027DD
:1000100005B90FE107B9002708B900E00AB90FE0F8
:100020000BB911270CD001E005B9499B03D0489BBF
:1000300015C0F9CF74D01395133009F4112708B106
:100040000871103029F0113031F0046008B90895BA
:10005000016008B90895026008B9089560D04A990E
:10006000E2CF4B99E0CF00C002E005B9103029F093
:10007000113031F034E043E005C032E041E002C02D
:1000800033E042E025E0439A032F32D04398042F17
:100090002FD02A95C1F700C004E005B9103021F037
:1000A000113021F035E103C03FE001C032E1439A55
:1000B000032F1ED0439800C008E005B9103029F086
:1000C000113031F039E047E005C035E043E002C0CF
:1000D00037E045E0439A032F0BD04398042F08D014
:1000E000449A032F05D0449800C000E105B9FFCF22
:1000F000002329F00AD04A9903D00A95D9F7089528
:10010000439844984A99FECF089552E56BE270E017
:100110007A95F1F76A95E1F75A95D1F7089552E883
:0C0120006DED6A95F1F75A95E1F708952E
:00000001FF
